S01F00002F6465636F6465722F6275696C642F6D617837383030302E737265634D
S3151000E00000000220798501102D840110B7850110BA
S3151000E010B9850110BB850110BD85011000000000F7
S3151000E020000000000000000000000000BF85011085
S3151000E030C185011000000000C3850110C5850110BF
S3151000E040C9850110CB850110CD850110CF85011032
S3151000E050D1850110D3850110D5850110D785011002
S3151000E060D9850110DB850110DD850110DF850110D2
S3151000E070E1850110E3850110E5850110E7850110A2
S3151000E080E9850110EB850110ED850110EF85011072
S3151000E090F1850110F3850110F5850110F785011042
S3151000E0A0B1830110B9830110FD850110FF850110A0
S3151000E0B001860110038601100586011007860110DE
S3151000E0C0098601100B8601100D8601100F860110AE
S3151000E0D0118601101386011015860110178601107E
S3151000E0E0198601101B8601101D8601101F8601104E
S3151000E0F0218601102386011025860110278601101E
S3151000E100298601102B8601102D8601102F860110ED
S3151000E11031860110338601103586011037860110BD
S3151000E120398601103B8601103D8601103F8601108D
S3151000E130418601104386011045860110478601105D
S3151000E140498601104B8601104D8601104F8601102D
S3151000E15051860110538601105586011057860110FD
S3151000E160598601105B8601105D8601105F860110CD
S3151000E170618601106386011065860110678601109D
S3151000E180698601106B8601106D8601106F8601106D
S3151000E190718601107386011075860110778601103D
S3151000E1A0798601107B8601107D8601107F8601100D
S3151000E1B081860110838601108586011087860110DD
S3151000E1C0898601108B8601108D8601108F860110AD
S3151000E1D0918601109386011095860110978601107D
S3151000E1E00000000000000000000000000000000019
S3151000E1F00000000000000000000000000000000009
S3151000E20000488047798501100348044B834202D0A9
S3151000E210034B03B118477047C40B0020C40B0020F2
S3151000E220000000000548064B1B1AD90F01EBA3018D
S3151000E230491002D0034B03B118477047C40B002096
S3151000E240C40B00200000000010B5064C237843B91B
S3151000E250FFF7DAFF044B13B10448AFF30080012334
S3151000E260237010BD000C002000000000209E02103C
S3151000E27008B5044B1BB104490448AFF30080BDE850
S3151000E2800840CFE700000000040C0020209E02107A
S3151000E29010B58AB00C9C8DF8101019462368CDF86D
S3151000E2A0193041230193CDF811206268A468CDF886
S3151000E2B021400D9C00940E9C02940F9CCDF81510D5
S3151000E2C0CDF81D20152304AA0DF11901039401F0B0
S3151000E2D03DFB20B110F1D50F0CBF022001200AB072
S3151000E2E010BD00BF2DE9F041ADF5A65D40F2D24359
S3151000E2F0154620220DEB0207079304230C460293C2
S3151000E3003B1F04F1520801930C2301460093CDE9FB
S3151000E31003724346062005F00BFDC8B910AE0396EE
S3151000E32094F8413004F15E02029203EB830203EB90
S3151000E330C203019304F16E033846009341461E232F
S3151000E34004F1400201F002FB074638B1D5376BD015
S3151000E350012738460DF5A65DBDE8F08101232B7126
S3151000E360D4F84210D4F84620D4F84A30D4F84E00E7
S3151000E3706861C5E902122B6194F8418085F8058021
S3151000E38094F840302B604FF4C0523946AF7105F106
S3151000E39018000BF0E1F905F5C0504FF44062183043
S3151000E3A039460BF0D9F9B8F1000FD2D02B4606F149
S3151000E3B0090CBE460EEB8E040EEBC404321934590A
S3151000E3C05268DA61DCF80020DCF80810C3F8212066
S3151000E3D0DCF80C20C3F82910C3F82D20DCF8040053
S3151000E3E01CF8011CDCF81020C3F82500C3F83120F6
S3151000E3F083F820109C613033DCF81C20DCF8140004
S3151000E400DCF81810C3F80500C3F80910C3F80D207E
S3151000E4106A790EF1010E72450CF1290CCADC3846E8
S3151000E4200DF5A65DBDE8F081022792E7F0B59FB025
S3151000E4301C46074604A80E46154601F019FC04AA08
S3151000E4402046202101F0CEFC10B101201FB0F0BDF6
S3151000E45003AB04AACDE90032402133463A4628469A
S3151000E46001F0F6FB18B1E530EFD10420EEE7039882
S3151000E470013818BF01201FB0F0BD00BFF0B53B4CEE
S3151000E4803B4DADF5125D87B000F0AAFD3948042268
S3151000E490214600F0BFFD2368374A802168460BF0FD
S3151000E4A011FD68460BF0ECF8694682B2472000F081
S3151000E4B0E7FC2368AB4222D1304D314E083442F28C
S3151000E4C0184742F2184220A9284600F0A3FD9DF8ED
S3151000E4D0843042F2184220A920460BB10BF03AFDC7
S3151000E4E02146284642F2184205F5804500F092FD75
S3151000E4F0B5423C44E5D10DF5125D07B0F0BD21499A
S3151000E5001E22472000F0BCFC20461F4A40F8085B3C
S3151000E51000211E4D0BF020F94FF0FF324FF0FF3364
S3151000E520214642F21840C1E90423C1E906230144F9
S3151000E5308D42F8D100F076FD0C490E48144D0F4C63
S3151000E5400F4F042200F068FD42F218462946204675
S3151000E55042F2184204F5804400F05EFDBC42354498
S3151000E560F4D10DF5125D07B0F0BD00BF200C0020F0
S3151000E570EFBEADDE008005104C14021000C0051071
S3151000E58000C0071070140210C0200100E02C0120FA
S3151000E590280C00202DE9F04FCF4FA3B01E46029055
S3151000E5A092463B464FF0000B42F2184106E00BF143
S3151000E5B0010BBBF1080F0B4400F05A819A68904288
S3151000E5C0F5D11A7B002AF2D042F2184303FB0BF363
S3151000E5D00193FB189B7B0093002B40F04D8142F278
S3151000E5E0184808FB0BF807EB080393F80D90B9F1E0
S3151000E5F0000F00F03D81002402E0A14500F03881B3
S3151000E60004F07F0303EB430308EB03133B44D3E906
S3151000E610081093F82820C2F1200EA2F1200C75469E
S3151000E620D14000FA0EFE41EA0E01E64620FA0CFC35
S3151000E63041EA0C0106FA05F52AFA02FC26FA0EFE44
S3151000E6404CEA050CD0404CEA0E0C26FA02F2904227
S3151000E65008BF614504F1010403F12003CDD1B8448C
S3151000E66001219C4688F80E100C460091BCE80F005C
S3151000E67008F5C159A9E80F00BCE80F00A9E80F007A
S3151000E6809CE80F0089E80F00002542F2184808FBA5
S3151000E6900BF805EB450208EB02123A4441F628093D
S3151000E6A002F5C153D3E9003112F80920C2F1200056
S3151000E6B001FA00F0D3400343A2F1200021FA00F042
S3151000E6C0C2F1200E06FA0EFE034321FA02FCA2F155
S3151000E6D020002AFA02F126FA00F041EA0E0101435F
S3151000E6E026FA02FEF44508BF8B424FEA45003ED09B
S3151000E6F0009BCDF800B003F1FF3C5FFA8CFC0CF1E7
S3151000E700FF3505EB450308EB03133B4403F5C150F6
S3151000E71013F80920D0E90031C2F1200001FA00F007
S3151000E720D3400343A2F1200021FA00F0C2F1200EDB
S3151000E73006FA0EFE034364462AFA02F0A2F1200CF2
S3151000E74026FA0CFC40EA0E0040EA0C00D14026FAEC
S3151000E75002FE714508BF83424FEA450B5FFA85FCFE
S3151000E760CDD1B8445846DDF800B088F80E40002ADE
S3151000E77072D0019BCDF80CB042F2184808FB0BF88A
S3151000E78003F5C15907EB0803CDF800A009F10909F3
S3151000E790AA469B4645468046009B02F1FF3CC2F1C5
S3151000E7A0210E23FA0CF306FA0EFEA2F1210026FA28
S3151000E7B000F043EA0E030343213A26FA0CF000FA5E
S3151000E7C00CF003FA02F204EB4404104305EB0412B6
S3151000E7D0CCF1200E41F628013A4423FA0EFE40EA07
S3151000E7E00E0003FA0CF302F801C002F5C152C2E999
S3151000E7F00030CDE9043006A807F032FD08EB0A0117
S3151000E80009EB011139442022240106A807F004FC63
S3151000E8104C44082204A906A807F0FEFB391906A8DD
S3151000E82007F080FC9BF80E400134E4B204F1FF3A85
S3151000E8300AEB4A0305EB03133B4441F628018BF818
S3151000E8400E405A5C4FEA4A08002AA5D15546DDF813
S3151000E8500CB0DDF800A0404642F2184303FB0BFB58
S3151000E86007EB0B031A7B1AB19B68029A934235D0B9
S3151000E870002023B0BDE8F08F019B03F108023A4453
S3151000E88002F5805302F5C15293F8203852E902215D
S3151000E890C3F1200001FA00F0DA400243A3F1200090
S3151000E8A021FA00F0C3F120050243A3F120042AFA4D
S3151000E8B003F006FA05F526FA04F42843D940204356
S3151000E8C026FA03F3994208BF82427FF488AE009B72
S3151000E8D01C465D1ED9E600BF200C002002462A44C5
S3151000E8E00BEB021B07EB0B0303F5C153D3E9001324
S3151000E8F0B34208BF51454FEA0212B9D1019B2C9D74
S3151000E90003F5C15309331A44BB18B85859689A68A5
S3151000E910DC68EC6028606960AA60186959699A69B0
S3151000E920DC69EC6128616961AA610120A1E700BF79
S3151000E93030B5ABB000221A4B1A4C0192154611464F
S3151000E94042F2184E187B01EB81020DF1A80C0CEB6C
S3151000E950820290B1A2F1A40C9D6842F8A05CA2F1CB
S3151000E9609C005D691A69CCF80820CCF80C50DA695D
S3151000E9709D690131C0E90252012573449C42E1D1DF
S3151000E98065B101EB810292000432019192B201A9A4
S3151000E9904C2000F075FA00202BB030BD0422F6E7AB
S3151000E9A0200C0020E02C0120F0B591F84030A1B0E9
S3151000E9B0002B79D00C460A46434BA0F1400104F1D6
S3151000E9C04000FFF733FD002864D1404A94F8401008
S3151000E9D01546134642F2184C03E0013008286344EA
S3151000E9E046D09E68B142F8D11E7B002EF5D042F279
S3151000E9F0184202FB0052C7B2083235482146FFF7CB
S3151000EA0071FC0646002858D107F580441734A40334
S3151000EA10204600F0FDFA04F5005000F0F9FA42F233
S3151000EA20184202FB07F16B1808315B7B03F07F037A
S3151000EA30C3F1800303EB4303A2EB031229442046E0
S3151000EA4000F0EAFA234A2B68802168460BF03AFA5E
S3151000EA5068460AF015FE694682B2472000F010FAA1
S3151000EA6032463146532000F00BFA304621B0F0BD45
S3151000EA70002042F21841137B0A44002BB7D0013014
S3151000EA800828F8D114493322452000F0F9F94FF03F
S3151000EA90FF36EAE704280BBF1049114941223122FB
S3151000EAA0452000F0EDF9F2E70E480BF087FE0E490F
S3151000EAB04622452000F0E4F9E9E70C4923224520D7
S3151000EAC000F0DEF9E3E700BF681A0210200C002000
S3151000EAD0481A0210B815021060150210E814021038
S3151000EAE02C15021090140210A01402109415021086
S3151000EAF02DE9F041BEB00C46802200211EA80AF076
S3151000EB002BFE4C492578D4F80160D4F805701622EE
S3151000EB10472000F0B5F9DFF820C10022634642F223
S3151000EB20184103E00132082A0B4432D09868854216
S3151000EB30F8D1187B0028F5D0002D44D042F21843A6
S3151000EB4003FB02C3D3E904128E4277EB020221D3F0
S3151000EB50D3E90623B242BB411CD3384913224720BE
S3151000EB6000F08EF9DFF8D8E0BEE80F000DF1140CB6
S3151000EB70CDF800C0E046ACE80F009EE80F008CE828
S3151000EB800F0032463B462846FFF704FD68BB2D4A68
S3151000EB903EE0C5B12C480BF011FECDE900672B4ABB
S3151000EBA02B4680211EA80BF08DF91EA80AF068FDD1
S3151000EBB01EA982B2452000F063F94FF0FF342046BB
S3151000EBC03EB0BDE8F0811D491322472000F058F9E8
S3151000EBD0DFF86CE0BEE80F000DF11408C446ACE88F
S3151000EBE00F009EE80F008CE80F000DAB039304F1A5
S3151000EBF05603029304F11503093401930094294630
S3151000EC00404632463B46FFF743FB044638B1104AAE
S3151000EC10CDE9006780211EA80BF054F9C5E79DF8D1
S3151000EC2034200DF13501442000F02AF920463EB07B
S3151000EC30BDE8F081F4150210200C0020B416021065
S3151000EC40C81602100C160210901402107816021034
S3151000EC504016021008B500F0F5F9002803DBBDE8F0
S3151000EC600840FFF70BBC02480BF0A8FDFEE700BFFB
S3151000EC7090140210F0B5ADF5AC5D83B08022002182
S3151000EC8002A80AF069FDFFF7E5FF2D492D4E2E4D1E
S3151000EC902E4F1022472000F0F3F806223146472067
S3151000ECA000F0EEF828460BF089FD0DF1060222A9B8
S3151000ECB00DF1050000F022F90346002B24480DF152
S3151000ECC0050419DB23784C2B33D0532B26D0442B39
S3151000ECD0204819D01E480BF071FD1F4A2378802159
S3151000ECE002A80BF0EFF802A80AF0CAFC02A982B239
S3151000ECF0452000F0C5F8D0E70BF060FD174920223B
S3151000ED00452000F0BDF8C8E70BF058FD22A9BDF864
S3151000ED1006000DF10603FFF7EBFEBEE710480BF0F9
S3151000ED204DFD22A9BDF806000DF10603FFF73CFEC6
S3151000ED30B3E738460BF042FDFFF7FAFDADE700BF2B
S3151000ED40EC160210001702100817021040170210D6
S3151000ED5090140210541702107C1702101C17021080
S3151000ED606817021099B32DE9F047DFF8688082B072
S3151000ED700F46451E002444F2251902AE00F078F91C
S3151000ED8000281DDB0134BC4205F8010F1BD0B4F579
S3151000ED90A85F18D0E3B2002BF0D1CDF804900DF196
S3151000EDA0040A1AF8010B00F069F9B245F9D1D8F83E
S3151000EDB0003098680AF0CCFD00F05AF90028E1DA24
S3151000EDC002B0BDE8F087002002B0BDE8F087002051
S3151000EDD0704700BF1000002000B583B000230193D8
S3151000EDE000F046F9C0B225288DF80400F8D100F0DD
S3151000EDF03FF9022103460DF106008DF80530FFF7A5
S3151000EE00B1FF9DF80500413818BF4FF0FF30C0B272
S3151000EE1003B05DF804FB00BFF0B583B029B3174605
S3151000EE200E46451E002415F8010F013400F026F990
S3151000EE30B4421AD014F0FF03F5D1002FF3D001938A
S3151000EE4000F016F9C0B225288DF80400F8D100F0AC
S3151000EE500FF902210DF10600FFF784FF013415F8B2
S3151000EE60010F00F00BF9B442E4D1044B1B6898680B
S3151000EE700AF06EFD002003B0F0BD00BF10000020A8
S3151000EE802DE9F04182B025230646174688468DF8AF
S3151000EE9004308DF80500ADF8062001AC02AD14F86B
S3151000EEA0010B00F0EBF8AC42F9D1134B1B689868D4
S3151000EEB00AF04EFD412E02D0472E04D197B90020FC
S3151000EEC002B0BDE8F081FFF787FF002FF7D00122CF
S3151000EED039464046FFF7A0FFFFF77EFF002002B03D
S3151000EEE0BDE8F081002239464046FFF795FF002025
S3151000EEF002B0BDE8F08100BF10000020F0B583B06D
S3151000EF000023009300284ED00E461746044600F004
S3151000EF10AFF8C0B225288DF80000F8D100F0A8F897
S3151000EF2002218DF801000DEB0100FFF71BFFBDF864
S3151000EF3002509DF801302370B5F5A85F84BF4FF4D9
S3151000EF40A855ADF8025007B13D80412B02D10020E3
S3151000EF5003B0F0BD44F22513019301AC02AF14F8CF
S3151000EF60010B00F08BF8BC42F9D1104F3B68986842
S3151000EF700AF0EEFC002DEAD02EB129463046FFF7F6
S3151000EF80F1FE00280FDB44F22513019301AC02AD0C
S3151000EF9014F8010B00F072F8A542F9D13B68986895
S3151000EFA00AF0D6FCD3E74FF0FF30D1E7100000206F
S3151000EFB0094A536AD90703D5516A21F001015162F2
S3151000EFC09B0700D47047044A0448536A23F002038F
S3151000EFD053620BF0F3BB00BF00900240941702106F
S3151000EFE008B50849172009F0CDFC074B4FF400026D
S3151000EFF01A604FF4407009F009FEBDE80840034856
S3151000F0000AF016B8B1EF001000E100E000A00240CF
S3151000F0101AF0FABE09F0F8BD0B4611461A4609F069
S3151000F020F1BD00BF38B5054C054D204604F500541A
S3151000F0301AF0EAFEAC42F8D138BD00BF00800510C8
S3151000F0400000081010B5084802224FF4E1310AF00A
S3151000F05047F8044608B9204610BD214603480BF070
S3151000F06047FD204610BD00BF00200440BC1702100B
S3151000F07001480AF02DB900BF00200440024A536827
S3151000F0801B06FCD410627047002004402DE9F04F97
S3151000F0908BB0064609910C46074601F1400E2068D2
S3151000F0A06168A268E3683D460FC5103474452F4663
S3151000F0B0F5D1736A0393B369D6F828E00493B36B5A
S3151000F0C0376A0793D6F82CC0D6F800B0F4693069C1
S3151000F0D0316BD6F804A07569726BD6F80890D6F81D
S3151000F0E00C8001940A23CDE905E3079BF46BCDF858
S3151000F0F008B00896BB466646019FDDF808E0DDF8C5
S3151000F10010C0AA44B844039F86448AEA02028EEAD3
S3151000F110010188EA040407EB32470297E144059F90
S3151000F1200BEB314B06EB3446039689EA03038BEA65
S3151000F13000060298049607EB3347454087EA0C0011
S3151000F1400590DDF804C0039880EA0C0C059809EBCD
S3151000F150305989EA33430EEB365E0AEB355A1E46B2
S3151000F160029B05968AEA324203EB3263019308EB5F
S3151000F1703C58039B88EA34448EEA314107EB3667E4
S3151000F18003EB3466049B0BEB316B8BEA3353029320
S3151000F190019B86EA3C5C83EA3555029B87EA305030
S3151000F1A009EB7C6989EA32620AEB706A08EB7368CC
S3151000F1B0059B03920EEB756E8AEA31610BEB324BAF
S3151000F1C0019A8EEA346488EA336306EB314607EB1C
S3151000F1D0344702EB334286EA7060019087EA756520
S3151000F1E01046029A0EEB355E80EA7262CDF808E0A0
S3151000F1F0DDF804E0019208EB3258029A0AEB3E5A07
S3151000F20082EA34448AEA314107EB346788EA3343A9
S3151000F21006EB316600EB33608BEA7C6C039A05973C
S3151000F22087EA355586EA3E57039009EB3C59BE46A8
S3151000F2300746019889EA32420BEB326B87EA305067
S3151000F24077464FEA77678BEA3C5C04974FEA7C6710
S3151000F2500197069F013F4FEA34644FEA75654FEAFE
S3151000F26031614FEA32624FEA33634FEA70600697B4
S3151000F2707FF442AFB446089E0793049BB361019B8B
S3151000F2807263F361099A079BB3635F46039BDDF8CC
S3151000F29008B0DDF814E07362C6E90BC1C6F800B019
S3151000F2A0F463C6F828E07561C6F804A0C6F808909D
S3151000F2B03762C6F80C803061331FA2F1040C3C365D
S3151000F2C053F8042F5CF8041FB3420A441A60F7D1AE
S3151000F2D00BB0BDE8F08F00BFB8B130B40C4684B0A7
S3151000F2E081B1034615460868A26849681D6301ACDA
S3151000F2F007C4019CDA63C3E90D410020186404B009
S3151000F30030BC70476FF0AC00F9E76FF0AC00704797
S3151000F310002875D010B50C4688B000295BD0102A8D
S3151000F32084462ED0202A56D18A073BD12368CCF8A2
S3151000F33010306368CCF81430A368CCF81830E36842
S3151000F340CCF81C30304B22691034CCF8202062687F
S3151000F350CCF82420A268CCF82820E268CCF82C201F
S3151000F3601A68CCF800205A68CCF804209A68CCF8B1
S3151000F3700820DB68CCF80C300020CCF8400008B030
S3151000F38010BD8B072AD12368CCF810306368CCF8EF
S3151000F3901430A368CCF81830E368CCF81C30226817
S3151000F3A01A4BD2E70868A268E3684968EE46AEE8E9
S3151000F3B00F006169A269E3692069AEE80F00DDE913
S3151000F3C00012029BCCF81830039BCCF81C30CCE909
S3151000F3D004126C46B6E76FF0AC00D0E70868A26876
S3151000F3E0E3684968CCF818206C460FC4019B039952
S3151000F3F0CCF81C10CCE904036C46044B0246A4E777
S3151000F4006FF0AC00704700BF981A0210881A0210ED
S3151000F410002800F065812DE9F04F924695B0002A3C
S3151000F42000F05B818B46002900F057811C46002BAB
S3151000F4306BD0066C81460DF11008002E40F0AE80A0
S3151000F4403F2B3FD90AEB0406CDE902BA55465F4673
S3151000F450B246A34649464046FFF718FED9F8303063
S3151000F46087EA05022A4301339207C9F8303050D093
S3151000F47040262B463A464446354407EB060E013ED7
S3151000F4801E44013C013A013B13F8011F14F8010F09
S3151000F490B34281EA000102F8011FF5D1AAEB050378
S3151000F4A03F2B7746D6D85C46A4F14003DDF80CA076
S3151000F4B0DDF808B023F03F03403304F03F049B44CB
S3151000F4C09A4414B349464046FFF7E0FD8BEA0A0317
S3151000F4D04AEA03039B0700F09F802346013B08F18D
S3151000F4E0FF310BF1FF350AEB03000AF1FF3212F878
S3151000F4F0013F11F8016F904283EA060305F8013FB8
S3151000F500F5D1C4F14004C9F84040002015B0BDE85B
S3151000F510F08F15F0030677D0AC463A464446403590
S3151000F52001E0AC4531D01CF8013B14F8011B1CF06E
S3151000F530030F83EA010302F8013BF2D107F1400EF3
S3151000F540AEEB020303F003069B0800F0DC80CDE966
S3151000F55000429F0020460CEB830311465CF8042BF7
S3151000F56050F8044B9C4582EA040241F8042BF5D16D
S3151000F570DDE900423C443A44002E80D1AAEB050353
S3151000F5803F2B77463FF666AF8DE7AAEB050307F1EB
S3151000F590400E3F2B77463FF65DAF84E7B3420146F8
S3151000F5A040461D4628BF3546FFF770FDC6F140039D
S3151000F5B0434483EA0A028BEA0A010A4396075AD0A1
S3151000F5C028465946524601381718013B0139013A67
S3151000F5D012F8010F13F8016FBA4280EA060001F81B
S3151000F5E0010FF5D1D9F840305B1BC9F8403023B96B
S3151000F5F0D9F830300133C9F83030641B3F2CAB4496
S3151000F600AA443FF61FAF5CE7AC463A461023444681
S3151000F610403507F1400E9AE71AF0030F424662D0C2
S3151000F620234602E0002B3FF46CAF1AF8011B12F8C8
S3151000F630010B1AF0030F81EA00010BF8011B03F10D
S3151000F640FF33EFD1990803F0030300294FD08E0042
S3151000F65002EB81085546584655F8041B52F8047BB0
S3151000F6607940904540F8041BF6D1B244B344002BC0
S3151000F6707FF434AF45E71AF0030F3DD02E465946B6
S3151000F680524601E0002EADD012F8010B13F8017BA3
S3151000F690784001F8010B900706F1FF36F2D1B70852
S3151000F6A006F003001E46A7B1CDE9005103EB870310
S3151000F6B04FEA870E94460F465CF8041B56F8045B17
S3151000F6C069409E4247F8041BF6D1DDE900517244A9
S3151000F6D0714400287FF477AF84E76FF0AC0015E72C
S3151000F6E06FF0AC007047A10804F00303ADE7904635
S3151000F6F0002B7FF4F3AE04E7AF0805F0030059467C
S3151000F7001E465246CFE76346002E7FF4B8AE35E765
S3151000F710002848D0F0B50F4689B0002940D01546CC
S3151000F720002A3DD00446A02200211E460AF014F8F5
S3151000F7302022002168460AF00FF8331E94F89D2007
S3151000F74018BF012363F3000284F89D203946202256
S3151000F7502046FFF7DDFD08B109B0F0BD0246294687
S3151000F7602046FFF7B9FD0028F6D120236A466946E0
S3151000F7702046FFF74DFE0028EED12022694604F1FF
S3151000F780440005F07BF80028E6D1012229462046E0
S3151000F790FFF7A2FD0028DFD1012384F89C30DBE7B8
S3151000F7A06FF0AC00D8E76FF0AC00704750B338B5C7
S3151000F7B015460446C9B190F89C30013B012B1ED862
S3151000F7C0D0F894309B1823D20AB9104638BD44306D
S3151000F7D005F042F90028F9D1D4F8943002222B44CE
S3151000F7E084F89C20C4F8943038BD72B990F89C30D7
S3151000F7F0013B012B8CBF6FF0BF00002038BD6FF0AE
S3151000F800BF0038BD6FF0AC0070476FF0AC0038BD6C
S3151000F810004838BDEEFEFFFF002850D0F8B50E4662
S3151000F820002949D01746002A46D090F89C201D463C
S3151000F830531E022B04463CD8D0F898305B1941D29F
S3151000F840022A2BD0032380F89C3094F89D30DB07D6
S3151000F85007D52B46324639462046FFF7D9FDB0B1BB
S3151000F860F8BD2A46314604F1440005F0F5F80028A3
S3151000F870F6D12B46324639462046FFF7C9FD0028F9
S3151000F880EED1D4F898302B44C4F89830F8BD2A46F7
S3151000F890394604F1440005F0DFF8F0E7D0F894108B
S3151000F8A0443005F031F9032384F89C300028CCD07D
S3151000F8B0F8BD6FF0BF00F8BD6FF0AC00F8BD6FF08B
S3151000F8C0AC0070470048F8BDEEFEFFFFC0B370B540
S3151000F8D00D46C1B390F89C309A1E012A04462CD8C6
S3151000F8E0022B00F144060ED0D4F89810304605F0DD
S3151000F8F00BF9B0B104F1A0010022234601348C4269
S3151000F9001A70FAD170BDD0F89410304605F0FCF894
S3151000F9100028EFD1D4F89810304605F0F5F80028F5
S3151000F920E8D1D4E92512304605F00EF90028E1D1C8
S3151000F9302946304604F0DCFFDCE76FF0BF0070BDEF
S3151000F9406FF0AC0070476FF0AC0070BD2DE9F0435E
S3151000F950ADB0DDE93554379EB8B190460A46A1B12F
S3151000F9609946014675B984B17EB104AF0023384675
S3151000F970CDE90033CDE90233FFF7CAFE40B12DB011
S3151000F980BDE8F083349B002BEDD16FF0AC00F6E7A9
S3151000F9904A4641463846FFF709FF0028EFD1349909
S3151000F9A02B4632463846FFF737FF0028E7D169461F
S3151000F9B03846FFF78BFF0028E1D1013C6B4613F860
S3151000F9C0012B14F8011FBB4282EA010240EA020031
S3151000F9D0F5D1002818BF6FF0D4002DB0BDE8F08324
S3151000F9E0F0B5B9B000B30D4616461F460446C9B168
S3151000F9F0E0220021684609F0AFFE616E6FF0010249
S3151000FA00684608F0D1FB041E09DB324629466846D3
S3151000FA1008F026FC044650B1684608F0B7FC2046AC
S3151000FA2039B0F0BD002AE3D06FF0AC04F7E73946E1
S3151000FA30684608F0A5FC0446EEE700BF70B5B8B0FE
S3151000FA4088B30E4679B3202A2DD190F86030DB07A3
S3151000FA5004462BD56B4600F12001FFF7C1FF054682
S3151000FA6010B1284638B070BD9DF8003023F007035A
S3151000FA708DF800309DF81F3003F03F0343F040032C
S3151000FA80694610A88DF81F3002F056FE304610A9B0
S3151000FA9003F0EAFD94F86030284643F0020384F838
S3151000FAA0603038B070BD6FF0AC05DAE76FF0D7058F
S3151000FAB0D7E700BF2DE9F04FADF5177D9DF888A269
S3151000FAC09DF890B2002863D01646002A60D0994659
S3151000FAD0A09B002B5CD0A19B002B59D0A39B8846E2
S3151000FAE00446002B51D05EADE0220021284609F0D5
S3151000FAF033FEA19B6FF00102596E284608F054FBA5
S3151000FB00071E18DBB8F1400F8DF860A08DF8D8B03D
S3151000FB1062D194F83F201F2A5ED8BAF1010F0FD98F
S3151000FB2020222146284608F09BFB0746002832D0A3
S3151000FB30284608F02BFC38460DF5177DBDE8F08FEA
S3151000FB4041492022284608F08BFB07460028EFD1B2
S3151000FB50012218A9284608F083FB07460028E7D19A
S3151000FB60012236A9284608F07BFB07460028DFD17C
S3151000FB70A39B002BD4D09DF8D8201946284608F010
S3151000FB806FFB07460028D3D1CAE7BBF1000FAAD0F6
S3151000FB906FF0AC07CFE7A1992022284608F060FB4A
S3151000FBA007460028C4D14A463146284608F058FB75
S3151000FBB007460028BCD1A09B2449186004F14002D6
S3151000FBC004F1200802E00AD3424505D012F8010DCF
S3151000FBD011F8013D9842F6D96FF0AC07A8E7A19944
S3151000FBE036A803F0BFFC0028F6D108A9284608F06D
S3151000FBF0C7FB074600289BD108A801F0C1FE434663
S3151000FC0036AA08A918A802F08BFF074600288FD13C
S3151000FC1018A9684603F028FD013C0DF1FF310DF1DE
S3151000FC201F0611F8013F14F8012FB14283EA0203AF
S3151000FC3047EA0307F5D11FB9A09A0123136077E7A6
S3151000FC406FF0E40774E700BFC81A0210C81A021052
S3151000FC5010B586B0089C00940024CDE90344FF2417
S3151000FC600294099C0194FFF725FF06B010BD00BF52
S3151000FC7040B108B56822002109F06EFD00F0DEF8EB
S3151000FC80002008BD6FF0AC00704700BF00283AD0C6
S3151000FC9010B590F860309907A8B0044630D5DA0749
S3151000FCA019D4E37F03F07F037F2B09D021466846E2
S3151000FCB003F058FC002818BF6FF0850028B010BD5F
S3151000FCC004F11F03611C01E08B4216D013F8012DBD
S3151000FCD0FF2AF9D0EAE720226946FFF7AFFE00288F
S3151000FCE0ECD12022214668460AF034F840B994F83F
S3151000FCF06030DB07D5D528B010BD2378EC2BD5D9CD
S3151000FD006FF08500DAE76FF0AC007047002865D019
S3151000FD1038B51446002A5ED01F295CD90278402ACD
S3151000FD201D460ED0042A01D1402927D8202937D0C4
S3151000FD306FF0AC0094F8603023F0020384F8603062
S3151000FD4038BD2129F2D1D0F80110D0F80520D0F80D
S3151000FD500930D0F80DC0C4F80CC021606260A360F1
S3151000FD60D0F81110D0F81520D0F81930D0F81DC0E1
S3151000FD70C4F81CC021616261A36108E000F1210290
S3151000FD80411C2023204603F08FFC0028D2D194F882
S3151000FD90603043F0020384F86030B5B1002038BDFE
S3151000FDA0016842688368D0F80CC0C4F80CC02160A2
S3151000FDB06260A360016942698369D0F81CC0C4F807
S3151000FDC01CC021616261A361E1E72046FFF75EFF77
S3151000FDD00028AFD1E2E76FF0AC0038BD6FF0AC0091
S3151000FDE0704700BF0023FFF791BF00BF83784278AA
S3151000FDF000781B0443EA022300211843704700BF12
S3151000FE0000680021704700BF00230122C0E90023CB
S3151000FE10C0E90233C0E90433C0E90633C0E9083348
S3151000FE20704700BF0023C0E90033C0E90233C0E9C0
S3151000FE300433C0E90633C0E908337047704700BF82
S3151000FE402DE9F04FD1E9083E99B0D1F80CA01190E8
S3151000FE502622D1E9014502FB0EF0CDF834E0D1E9B6
S3151000FE6006ECD1E9048B0E680B93514603EBC307DE
S3151000FE70490003EB47090B466F000EEBCE01CDE9A7
S3151000FE80077A5F460EEB410B414649000C91710013
S3151000FE90E246039102FB0CFC099707FB02F271463E
S3151000FEA07F0005974F005146CDF804E00F974FEAB3
S3151000FEB0440E4F000E978EFB0017C6FB06176E00FA
S3151000FEC0CDF828A0C6FB0917DDF830A0DDF824E030
S3151000FED0CDF80880C3FB0C17CAFB0B17CEFB021715
S3151000FEE011F10072CDF8189098464FEA9269039B6B
S3151000FEF002F07C42049285FB0062C3FB0462434617
S3151000FF00DDF81880C3FB0862DDF80880DDF814E020
S3151000FF10109347F1000AC8FB0C62CEFB0B6249EA4C
S3151000FF208A1919EB060942EBAA621492049ADDF8B3
S3151000FF3018E08A1A67EB0A06DDF80CA0159267001E
S3151000FF4084FB07140C9A1696CAFB05140646C3FBC7
S3151000FF50001405980497CEFB0214019AC0FB0C14EA
S3151000FF60C2FB0B14129187FB0371CAFB08718346FF
S3151000FF70C5FB05713046CBFB06710F9E0A9ACEFB68
S3151000FF800671C2FB0C71049A85FB0265089A5346EA
S3151000FF90C3FB0265DDE90528029BC3FB0065C2FBB6
S3151000FFA00865DDF80480099AC8FB0C65DDF810C0F9
S3151000FFB0139683FB0CC6039BC3FB02C6DDE90782BF
S3151000FFC0C2FB08C6DDF804800E9A17F1007BC8FB49
S3151000FFD000C6DDF8188041F1000A4FEA9B6EC2FB9D
S3151000FFE008C64EEA8A1E1EEB0C0E0BF07C4B46EB37
S3151000FFF0AA66B7EB0B0761EB0A01DDF850A017975D
S3151001000019F1807CDDF848B0DDF80480089F4AF1CB
S3151001001000024FEA5C6A4AEAC21A1AEB0B0B0CF0A1
S315100100207E4C44EB6264B9EB0C0CCDF848C0DDE9AB
S3151001003004C28CFB022CCDF83CB0C3FB082CDDF8B6
S3151001004008B0DDF81C80109BCBFB082CC7FB032CDA
S315100100500E9FDDF818801EF180798346C7FB002CB0
S315100100600B9846F100064FEA596AC0FB082C4AEA7A
S31510010070C61A1AEB020A4CEB666C0F9E1398CDF852
S3151001008020A009F07E49BEEB090916F1007244F170
S315100100900004960E46EA8416361845EBA46502F05E
S315100100A07C441AF10072CDF83890109402F07C4914
S315100100B04FEA9264049ADDF80CA0DDF82CE007985B
S315100100C0069682FB0762019FCDF84C90CAFB0E6221
S315100100D0DDF81490DDF80880DDF834E0C7FB006226
S315100100E0C3FB0962C8FB0862CEFB0B62D946B34655
S315100100F0049E87FB06E60A9FCAFB07E6099FC7FB14
S3151001010000E6C8FB03E618460B9B4CF1000CC3FB3B
S3151001011009E644EA8C1414EB0E0446EBAC66DDF8E2
S3151001012010C0DDF834E0DDF8288083FB0CC3CAFB70
S315100101300EC3DDF81CE0C8FB0EC3DDF80480DDF844
S3151001014030E0C8FB00C3C7FB0EC3069F1598E246F5
S3151001015017F1807C45F1000E179F4FEA5C6545EA61
S31510010160CE15ED1941EB6E6114F180790CF07E4ECE
S3151001017046F10006CDF804E04FEA596E4EEAC61E66
S315100101801EEB0B0E42EB666215F1007641F1000192
S315100101901EF1007842F100024FEA986C4CEA821C7B
S315100101A01CEB0A0C43EBA2631CF1807743F10003AD
S315100101B04FEA576B4BEAC31B5B164FEAC30A4FEA6A
S315100101C0CB0212EB0B024AEA5B7A43EB0A0A92184C
S315100101D04AEB0A0A12EB0B0243EB0A0312181698A2
S315100101E040EB030312F1007B4FEA9B6A0BF07C4B49
S315100101F043F10003B2EB0B02DDF848B006984AEA68
S31510010200831A1AEB0B0ADDE90F3BB3EB0B03DDF88F
S3151001021004B0B0EB0B0B1198C0E9002AC0E9023B00
S315100102200E9ADDF820A0B30E43EA811306F07C4640
S31510010230AE1B9B18139A09F07E4908F07C4807F00B
S315100102407E47BAEB0205B4EB0904BEEB0802BCEB20
S315100102500707C0E90463C0E90654C0E9082719B0C5
S31510010260BDE8F08F2DE9F04753684E688D68CC686C
S315100102700F69D1F814C0D1F818E0D1F81C80D1F863
S315100102802090D1F800A01E4493681D44D3681C44E5
S3151001029013691F4453699C4493699E44D3699844D6
S315100102A0136A99444B6A516A194413684660534458
S315100102B0C0E90254C0E9047CC0E906E8C0E9089126
S315100102C00360BDE8F08700BF2DE9F04F0E46D1E976
S315100102D00092746A8968D6F80C80D6F810C07569D0
S315100102E0D6F818E004EBC40304EB430303F180735F
S315100102F009EB636302EBA36301EB636308EBA3638F
S31510010300D6E907760CEB636305EBA3630EEB636328
S3151001031007EBA36306EB636304EBA3635B1603EBC3
S31510010320C30A03EB4A034B4402EBA36201EB62617E
S3151001033008EBA1680CEB686C05EBAC650EEB656E12
S3151001034007EBAE6706EB676604EBA66424F07E49FD
S3151001035089B02EF07C4427F07E4E25F07E474D461F
S3151001036022F07E4226F07C46AD0121F07C41CDF88B
S315100103701C9045EA165B4FF000099511029765F33B
S31510010380070900274D1328F07E4865F307070197E3
S3151001039047467D01019F039445EA51554FEA8C1456
S315100103A044EAD84465F30F27002564F30705029C38
S315100103B0CDF810804FF0000864F30708039C0197ED
S315100103C0E4110027CDF814E064F307074FEA6E3EF7
S315100103D0002406966EF307044FEA061E059E4EEAA2
S315100103E0565E23F07C436EF30F244FF0000A4FF054
S315100103F0000E63F3070A6BF3070E4FEA232B6BF319
S315100104000F2A4FEAA23B6BF30F294FEAC10B4BEAB6
S31510010410925B920042EA13626BF317491B1449115E
S3151001042061F31F6963F3174A0299C0F8049062F3E6
S315100104301F6ACCF39703039AC0F800A063F30F2544
S315100104400B1263F30F28D31363F30F27F30043EA59
S31510010450D25363F3174753000A1443EA116362F345
S315100104601748079A049963F31F68731163F31F679B
S31510010470019EC0F81080931063F30F2ECB1063F317
S315100104801746CB1263F31F66476186600699CCF354
S315100104908F2363F317450B1163F317440B1363F3A0
S315100104A01F649312CCF3874C63F3174E93146CF3BA
S315100104B01F6563F31F6EC5608461C0F81CE009B047
S315100104C0BDE8F08F2DE9F04753684E688D68CC680A
S315100104D00F69D1F814C0D1F818E0D1F81C80D1F801
S315100104E02090D1F800A0F61A9368ED1AD368E41A91
S315100104F01369FF1A5369ACEB030C9369AEEB030E48
S31510010500D369A8EB0308136AA9EB03094B6A516A6D
S31510010510591A13684660AAEB0303C0E90254C0E9ED
S31510010520047CC0E906E8C0E908910360BDE8F087DC
S315100105302DE9F04F91F806E04A790B79CC7F91F8C5
S315100105400CC04D7A91F815B00F7E4FEA0E4E4EEA59
S31510010550022E4EEA030E8B7FCA791B0243EA04432D
S315100105604C7F2343CC7A4FEA0C4C4CEA042C0C7A80
S315100105702D0445EA04258BB015436A0100928A7A47
S315100105808C7B4CEA020CCA7B120442EA04229B00C1
S315100105904C7B23F07E4323F00303224303F180793E
S315100105A092000C68019249F3406202F01302141989
S315100105B002948C7D4A7E4FF000064FEA044446EBC6
S315100105C006054FEA8E1E44EA0B24120491F817B061
S315100105D003950EF180780D7D09F07E4942EA0722D6
S315100105E0B3EB09034FEA586A42EA0B0208F07E4858
S315100105F091F81CB0CDF818800493D1F81080009BA7
S315100106002C43CD7E897EDDF818904FEA0B4B4FEACD
S31510010610CC0C4BEA05250CF180770D4301991AEBA9
S31510010620030A4FEA576334BFB3464FF0010BBEEBD3
S31510010630090E5B1834BF3146012107F07E47BCEB2A
S315100106400707019118F18071009346F100064B0ED0
S31510010650E40143EAC6131B194FEA421201F07E4424
S3151001066002F180762CBF4FF001094FF00009B8EB6B
S31510010670040408942D01029CCDF814B0710E491989
S3151001068006F07E46039DCDF818E02CBF4FF0010C05
S315100106904FF0000C921B14F1007645F1000B009DF2
S315100106A0CDF824C005F1007E13F1007C4FEA966562
S315100106B006F07C4649F10009A61B069C079745EAF8
S315100106C08B152D190AF10078DDF814B0079CC0E9D5
S315100106D000654FEA986545EA8B1508F07C48BAEB38
S315100106E008062D19C0E90265009C019E4FEA9E6518
S315100106F00EF07C4E45EA8615B4EB0E06089C2D19B4
S315100107004FEA9C6444EA89140CF07C4CB3EB0C035D
S3151001071001F10077A418DDF824C0049AC0E9063463
S31510010720BB0E43EA8C1307F07C47C91B9B18C0E923
S315100107300465C0E908130BB0BDE8F08F2DE9F0414F
S31510010740D1E9008ED1E902C7D1E90465D1E90642A2
S31510010750D1E90831C0E9008EC0E902C7C0E90465D4
S31510010760C0E9064241620362BDE8F0812DE9F04F0E
S31510010770D2E90864A9B0D1E9008504EBC403D769AD
S315100107801E9404EB430E06EBC6046B000E951D96E4
S3151001079006EB44055669089507EBC704354607EB82
S315100107A0440607964E69D2F800B0D2F810A05468E4
S315100107B0CDF814E00B96D2F818E01F90D2E9022674
S315100107C0D1E90290019403920EEBCE0405EBC5021A
S315100107D00EEB440405EB4202D1F810C01A970F90A4
S315100107E04700CDF858E00D9410951392D1E906E023
S315100107F00B9ACDF864A054000AEBCA0205460AEB1F
S31510010800420006EBC60206EB420A0C960E6A496ACC
S3151001081002960A46039914956E001592019DCDF81C
S315100108206CA05200129201EBC10A059A119601EBC6
S315100108304A0A05EBC50105EB410183FB0226089D1A
S31510010840CDF82480C8FB0B26C9FB0526079DDDF8CC
S315100108503480CDF82890C7FB0526DDF84C90CDF8ED
S3151001086010C0CCFB0826C4FB0926DDF844C0DDF810
S315100108706C901894CEFB0026029C1797CCFB092688
S31510010880DDF84890CDF818E0C4FB0A26C9FB01260D
S315100108900E991C90DDF824C0DDF804E00F988BFB4F
S315100108A00141CCFB0E41DDF828C0DDF814E0CEFB8A
S315100108B00C41DDF820E0CEFB0041DDF810E00B988D
S315100108C0C5FB0E410D9DDDF818E0C5FB0041139DDA
S315100108D01498C5FB0E41DDF870E0199DCEFB004161
S315100108E01B98DDF808E012F10078C0FB0E4115984F
S315100108F0DDF810E046F100094FEA9867CAFB00419E
S3151001090047EA89173F1908F07C4841EBA961B2EB18
S31510010910080266EB0909CDF88890DDF83090DDF80C
S315100109202480209121920399DDF860A0119E89FB04
S315100109300324C8FB05246046C1FB0C241799DDF876
S3151001094004C0CCFB01240599CBFB0E24C1FB0A2460
S315100109500899DDF818A0C1FB0A24DDF81CA0DDF802
S3151001096034800299DDF824C0DDF840E0CAFB062484
S31510010970C8FB01249046DDE9122ACAFB02840E9AAD
S3151001098085FB022ACCFB0E2ADDF830E0DDF804C027
S31510010990CEFB002A0F98DDF80CE0CEFB002ADDF81D
S315100109A010E00B98CCFB0E2ADDE905CECBFB002A15
S315100109B0CCFB0E2A1498DDF820C0DDF81CE0CCFB28
S315100109C0002ADDF808C015984146CEFB0C2A18F10D
S315100109D00078DDF834C0DDF80CE044F100094FEA87
S315100109E09866CCFB002A46EA8916DDF804C0B618CB
S315100109F008F07C484AEBA96AB1EB08088CFB032185
S31510010A00DDF824C0CDF88C80CCFB0E21DDF828C092
S31510010A10DDF814E0DDF88080CBFB0C21DDF85CC03D
S31510010A20CEFB0C21DDF820C0DDF810E064EB0909DE
S31510010A30CDF89090CCFB0E21DDF81CE0DDF860C0FE
S31510010A401C98CEFB0C21DDF834C0DDF818E0CCFB88
S31510010A500E21DDF84CC0DDF844E0CCFB0E21DDF8AB
S31510010A6008C0DDF848E017F18074C0FB0C211B9813
S31510010A70DDF824C048F100084FEA5469C0FB0E2185
S31510010A8049EAC81919EB020904F07E4441EB686181
S31510010A90B7EB040816F18077CDF894804AF1000877
S31510010AA0DDF840A0169C8AFB032ACCFB042ADDF84C
S31510010AB028C00C9CC5FB0C2A179DC4FB052ADDE931
S31510010AC0034E019DC4FB0E2A189CDDF818E0C5FBE8
S31510010AD0042A059C119DCBFB0E2AC4FB052A089DF1
S31510010AE0029CC5FB042A5546129CDDF81CA04846FB
S31510010AF04FEA5769CAFB042549EAC81919EB020AD4
S31510010B0007F07E47CDF86CA045EB686AF61B10F12D
S31510010B100072269602F07C46209027961A9EDDF8E2
S31510010B2024901D98DDF84080199D41F1000786FB40
S31510010B3003361699C9FB0036C1FB0C361799C8FB4B
S31510010B4001360499DDF83080940E189AC5FB0136EA
S31510010B50C8FB0236039ADDF80480C2FB0E36119AE1
S31510010B60C8FB0236DDF80880059ACBFB0836984695
S31510010B70129BC2FB03860E9B1E9A099680FB0303EA
S31510010B80C9FB020306461A981A46C0FB0C62334685
S31510010B900F98169EC6FB00321098039EC0FB0132B9
S31510010BA00B990C98C5FB01321499C0FB0E32C6FB8A
S31510010BB00132DDE90110C1FB003215991E46CBFB4E
S31510010BC001620E9B1196DDF858E01A998EFB03030C
S31510010BD0C9FB01031E46109B0B99DDF828E0C3FBE8
S31510010BE00C060F9BB446C5FB030C049E0C9D039B80
S31510010BF0C5FB060CC3FB010C0E9983FB0131C9FB26
S31510010C000531019DDDF83C90C5FB0E31CBFB093159
S31510010C10DDF81490DDF82CE0C9FB0631089EC6FB01
S31510010C200E31DDE906E5C5FB0E31019DC5FB0E0C46
S31510010C30149DDDF834E0CBFB050CCEFB0531029D8E
S31510010C40DDF84CE0C9FB050CCEFB0531DDF87090E3
S31510010C50DDF854E01B9DC9FB0E3144EA8714E418F4
S31510010C6041EBA76115F10075C6FB0E0C4AF10003A5
S31510010C704FEA956E4EEA831E1EEB000E4CEBA363F4
S31510010C8014F18070239FDDF890C0099E05F07C4A0F
S31510010C9041F10001450E45EAC115ED194CEB6161B3
S31510010CA01EF1807900F07E4CCDF804C043F10003AB
S31510010CB04FEA596C4CEAC31C1CEB080C46EB6363F8
S31510010CC015F1007641F100011CF10078119FCDF864
S31510010CD008A043F100034FEA986040EA8310C01957
S31510010CE042EBA36310F1807743F100034FEA576B90
S31510010CF04BEAC31B5B164FEAC30A4FEACB0212EB50
S31510010D000B024AEA5B7A43EB0A0A92184AEB0A0A81
S31510010D1012EB0B0243EB0A0A219BD218229B43EBDF
S31510010D200A0312F1007B43F100034FEA9B6A4AEA78
S31510010D30831A259B0BF07C4BB2EB0B021AEB030AC1
S31510010D40DDF89CB0209BB3EB0B03DDF804B0B4EBDC
S31510010D500B04DDF87CB0CBE90234CBE9002AB30EE3
S31510010D60269A43EA811306F07C46AE1B99181B9B03
S31510010D70029A09F07E4908F07C4807F07E479C1AD2
S31510010D80BEEB0902BCEB0803C01BCBE90461CBE93E
S31510010D900642CBE9083029B0BDE8F08F30B5A9B0CD
S31510010DA0054668460C46FFF74BF869460AA8FFF751
S31510010DB047F80AA90846FFF743F80AAA214610463A
S31510010DC0FFF7D4FC0AAA69466846FFF7CFFC6946C5
S31510010DD014A8FFF735F80AA9084614AAFFF7C6FCA6
S31510010DE00AA914A8FFF72CF8042414A90846FFF73A
S31510010DF027F8013CF9D10AAA104614A9FFF7B6FC47
S31510010E000AA914A8FFF71CF8092414A90846FFF724
S31510010E1017F8013CF9D114A908460AAAFFF7A6FC4E
S31510010E2014A91EA8FFF70CF813241EA90846FFF7EC
S31510010E3007F8013CF9D114AA10461EA9FFF796FC32
S31510010E4014A90846FEF7FCFF092414A90846FEF763
S31510010E50F7FF013CF9D10AAA104614A9FFF786FC3F
S31510010E600AA914A8FEF7ECFF312414A90846FEF7C7
S31510010E70E7FF013CF9D114A908460AAAFFF776FC47
S31510010E8014A91EA8FEF7DCFF63241EA90846FEF767
S31510010E90D7FF013CF9D114AA10461EA9FFF766FC2B
S31510010EA014A90846FEF7CCFF312414A90846FEF70B
S31510010EB0C7FF013CF9D10AAA104614A9FFF756FC3F
S31510010EC00AA90846FEF7BCFF04240AA90846FEF73C
S31510010ED0B7FF013CF9D16A460AA92846FFF746FC35
S31510010EE029B030BD2DE9F04FD1E908CB85B0D0E955
S31510010EF00043CDF808C0D1F800C0019352420B68E7
S31510010F00CD6984EA0C0CD1E901A90CEA020C84EA38
S31510010F100C0483EA0C0C019BCDF80CC0D1E9038EAD
S31510010F20D1E90576046083EA0A04144063404360FC
S31510010F3083688AEA040483EA0903D0F808A00194B5
S31510010F4013408AEA030C89EA0309C368C0F808C08A
S31510010F5083EA080C0CEA020C83EA0C03C3600369EA
S31510010F6088EA0C0C83EA0E0808EA020883EA0803E9
S31510010F70036143698EEA080E83EA070808EA020844
S31510010F8083EA08034361836987EA080783EA060847
S31510010F9008EA020883EA08038361C369029C86EAA8
S31510010FA0080683EA050808EA020883EA0803C3610A
S31510010FB0036A85EA08056340D0F82080134088EA61
S31510010FC003086340446AC0F8208084EA0B0808EAE3
S31510010FD0020884EA080242620398086001988BEAC3
S31510010FE00802C1E90109C1E903CEC1E90576C1E9E2
S31510010FF007534A6205B0BDE8F08F00BF2DE9F04FE7
S315100110000A46D1E9011397B0146A0C904D00506A43
S31510011010D2F800900395D2E906BCD5680794D2E9B7
S315100110200482262606FB00F7824604EBC40004EB75
S31510011030400E4FEA490006FB0CF40190059202FBA3
S3151001104006F6404652000492CDF824C0400062468E
S315100110504FEA410C089006958CFB070C6D000A951A
S31510011060C9FB090C0297CDF82C805F00DDF82880AA
S31510011070E146C7FB0E09DDF820C00BEBCB050BEBE8
S315100110804505C8FB0409CCFB0509DDF814C0CCFBEA
S31510011090060906180D96029EDDF804C049EB0908EB
S315100110A083FB0660DDF82890CDF83880CCFB016013
S315100110B0DDF82C80DDF810C0C9FB0E60C8FB04609A
S315100110C0CCFB0560B6190A964041019E0B904FEA7A
S315100110D0410C81FB0C10C6FB0310029EDDF820C0EB
S315100110E0C9FB0610CEFB0C10DDF810C0019ECCFB1F
S315100110F00410CBFB0510DDF80CC0069D49180F91A5
S3151001110040EB0001109183FB0C10C6FB0510029DEC
S31510011110049EC8FB0510C6FB0E10CBFB04104D1820
S31510011120119540EB0001019D12918CFB0901C5FB44
S315100111300801C3FB03013346029EC3FB06014FEAB6
S315100111404B06CEFB0601099EC6FB0401019E88FBD8
S315100111500C45DDF814C00597C6FB0C45069EC6FB6B
S315100111600745029E5200CBFB06450018C2FB0E45F1
S31510011170039E494124191394019C86FB0363C4FB06
S315100111800B63C8FB0763069FC7FB0963029FC2FB7C
S315100111900763079FC7FB0E636D41B61943EB030E39
S315100111A0CDF854E01496039E049BCDF810A086FB4F
S315100111B0022EC4FB072E059FCDF814C0CBFB072EBC
S315100111C0C9FB032EC8FB082E53469246029AC3FB4F
S315100111D002AECDF818A0DDF824A08BFB0663C4FB84
S315100111E00A63CCFB07633A46DDF808C0039FC8FBC8
S315100111F00963DDF81C80C8FB0C6388FB07C7DDF8A3
S315100112001080C4FB08C7CAFB02C7DDF81480069A12
S31510011210DDF834A0139CCBFB09C7DDF82090B61975
S31510011220C8FB09C75B419218DDF838804EEB0E0BEF
S315100112301CEB0C0CCDF818C047EB070C1AF1007E0D
S3151001124048F100090A9FCDF81CC04FEA9E6C4CEA82
S31510011250891C1CEB070C0B9F0EF07C4E47EBA96704
S31510011260BAEB0E0A68EB090810F1007941F1000E8C
S31510011270CDF804A04FEA996A4AEA8E1A1AEB0404C9
S3151001128009F07C4945EBAE65B0EB090061EB0E0147
S315100112901CF1807ECDF8088047F10007DDF83C800F
S315100112A04FEA5E6949EAC71919EB0808DDF840905B
S315100112B00EF07E4E49EB6767BCEB0E0E14F1807C87
S315100112C0DDF85090CDF80CE045F100054FEA5C6E63
S315100112D04EEAC51E1EEB090EDDF854900CF07E4C3D
S315100112E049EB6569B4EB0C0418F1007C119D05946A
S315100112F047F100074FEA9C6444EA87146419129D6A
S3151001130045EBA7670CF07C451EF1007C089549F169
S315100113100005CDF810E04FEA9C6E4EEA851E1EEBD5
S31510011320060E0CF07C4643EBA5630A9614F1807603
S3151001133047F10007750E45EAC7152D1841EB676190
S315100113401EF1807943F100034FEA596C4CEAC31C34
S315100113501CEB020C06F07E404BEB636315F1007635
S3151001136041F100011CF10072069F099043F100033F
S31510011370900E40EA8310C019079F47EBA36302F052
S315100113807C47069710F1807743F100034FEA576BBC
S315100113904BEAC31B5B164FEAC30A4FEACB0212EBA9
S315100113A00B024AEA5B7A43EB0A0A92184AEB0A0ADB
S315100113B012EB0B0243EB0A0A019BD218029B43EB79
S315100113C00A0312F1007B4FEA9B6A0BF07C4B43F147
S315100113D00003B2EB0B02DDF80CB04AEA831A1AEBE2
S315100113E00B0ADDF820B0B8EB0B03DDF82480B4EB63
S315100113F00804DDF83080C8E90234C8E9002AB30EC2
S31510011400059A43EA811306F07C46AE1B9918049B94
S315100114100A9A9C1A069B09F07E4907F07E47BEEB95
S315100114200902BCEB0303C01BC8E90461C8E9064203
S31510011430C8E9083017B0BDE8F08F00BF70B59EB08F
S31510011440064668460D46FEF7FBFC69460AA8FEF7F6
S31510011450F7FC0AA90846FEF7F3FC0AAA1046294624
S31510011460FFF784F90AAA69466846FFF77FF96946C4
S315100114706846FEF7E5FC6A460AA96846FFF776F95B
S3151001148069460AA8FEF7DCFC04240AA90846FEF7F9
S31510011490D7FC013CF9D16A460AA96846FFF766F9F5
S315100114A069460AA8FEF7CCFC09240AA90846FEF7E4
S315100114B0C7FC013CF9D10AA908466A46FFF756F955
S315100114C00AA914A8FEF7BCFC132414A90846FEF7B2
S315100114D0B7FC013CF9D10AAA104614A9FFF746F93F
S315100114E00AA90846FEF7ACFC09240AA90846FEF724
S315100114F0A7FC013CF9D16A460AA96846FFF736F9F5
S3151001150069460AA8FEF79CFC31240AA90846FEF78B
S3151001151097FC013CF9D10AA908466A46FFF726F954
S315100115200AA914A8FEF78CFC632414A90846FEF731
S3151001153087FC013CF9D10AAA104614A9FFF716F93E
S315100115400AA90846FEF77CFC31240AA90846FEF7CB
S3151001155077FC013CF9D16A460AA96846FFF706F9F4
S3151001156069466846FEF76CFC69466846FEF768FCF4
S315100115702A4669463046FFF7F9F81EB070BD00BF1E
S315100115802DE9F041D1E90137C3F1000C8B69CE6821
S315100115900D694C69C3F10008CB69C3F1000E0B6AE2
S315100115A05A424B6A09687F4276426D4264425B42F7
S315100115B04942C0E901C7C0E90365C0E90548C0E968
S315100115C007E201604362BDE8F08100BF00B589B052
S315100115D001466846FEF778FE094900200DF1FF32F3
S315100115E00DF11F0E12F8013F11F801CF724583EA72
S315100115F00C0340EA0300F5D109B05DF804FB00BF06
S31510011600EB1A021000B589B001466846FEF75CFE7A
S315100116109DF8000000F0010009B05DF804FB00BF61
S315100116202DE9F043D0E900540B6885EA03094B68AC
S31510011630524284EA030809EA020908EA0208D1E9D2
S3151001164002EC88EA040889EA0509D1E90476D1E9A8
S315100116500654D1E90831C0E90098D0F8088088EA23
S315100116600E0E0EEA020E8EEA080EC0F808E0D0F849
S315100116700CE08EEA0C0C0CEA020C8CEA0E0CC0F88B
S315100116800CC0D0F810C08CEA0707174087EA0C0780
S31510011690076147697E4016407E40466186697540FE
S315100116A0154075408561C5696C4014406C40C46134
S315100116B0446A6140114061404162016A4B401340E6
S315100116C04B400362BDE8F08300F1FF3C2DE9F04386
S315100116D000226446D31002F0070ECB5C013243FAA6
S315100116E00EF303F00103B2F5807F04F8013FF1D147
S315100116F04FF0000E754640F2011700F580764FF057
S3151001170001081CF9013F0EF1010E23B9BEF5807FC8
S31510011710F7D1BDE8F083BEF5807FFAD0614601228C
S31510011720A7EB0E0907E08CF800400D700132072A6D
S31510011730E7D04A45E5D011F9013F002BF6D09CF9C7
S3151001174000009340C4180F2CEDDDC01A10F10F0FD5
S31510011750D7DB8CF800000B4603E09E4203F8015CD0
S31510011760E4D01846013390F90040002CF5D180F8E9
S315100117700080DBE72DE9F04F5FFA82FA02EAE272A6
S31510011780AAEB42020746D5B29FB007F1280985F0A8
S31510011790010B7A4E07F150080C460BF1FF3BFEF791
S315100117A033FB4846FEF730FB4FEADB7B4046C4EB82
S315100117B00414FEF737FB06EB84115A46A40138468A
S315100117C0FFF72EFF04F1280131445A464846FFF728
S315100117D027FF5A4604F1500185F0020B3144404669
S315100117E00BF1FF3BFFF71CFF4FEADB7B04F178019E
S315100117F031445A463846FFF713FF04F1A00131442C
S315100118005A464846FFF70CFF5A4604F1C80185F0BF
S31510011810030B314440460BF1FF3BFFF701FF4FEA43
S31510011820DB7B04F1F00131445A463846FFF7F8FEE6
S3151001183004F58C7131445A464846FFF7F1FE5A4673
S3151001184004F5A07185F0040B314440460BF1FF3BC2
S31510011850FFF7E6FE4FEADB7B04F5B47131445A46D5
S315100118603846FFF7DDFE04F5C87131445A4648463D
S31510011870FFF7D6FE5A4604F5DC7185F0050B3144A7
S3151001188040460BF1FF3BFFF7CBFE4FEADB7B04F53E
S31510011890F07131445A463846FFF7C2FE04F502711B
S315100118A031445A464846FFF7BBFE5A4604F50C71B9
S315100118B085F0060B314440460BF1FF3BFFF7B0FEB6
S315100118C04FEADB7B04F5167131445A463846FFF769
S315100118D0A7FE04F5207131445A464846FFF7A0FE8B
S315100118E05A4604F52A7185F0070B314440460BF12F
S315100118F0FF3BFFF795FE4FEADB7B04F5347131446C
S315100119005A463846FFF78CFE04F53E7131445A4665
S315100119104846FFF785FE85F0080504F548715A46D5
S3151001192031444046013DFFF77BFEED0F04F5527140
S3151001193031442A463846FFF773FE04F55C7131448B
S315100119402A464846FFF76CFE04F5667131442A466D
S3151001195040464FEADA1AFFF763FE524639464846C1
S31510011960FFF7C0FA414614A8FFF70AFE524614A91A
S315100119704046FFF755FE1FB0BDE8F08F441F021019
S315100119802DE9F04FB3B00446FEF730FA0090A01CD3
S31510011990FEF736FA0190601DFEF728FA0290E01D57
S315100119A0FEF72EFA039004F10A00FEF729FA0490C5
S315100119B004F10D00FEF71AFA059004F10F00FEF777
S315100119C01FFA069004F11200FEF710FA079004F1BF
S315100119D01500FEF70BFA089004F11700FEF710FA3E
S315100119E0099004F11A00FEF701FA0A9004F11C009D
S315100119F0FEF706FA0B9004F11F00FEF701FA0C90A0
S31510011A0004F12200FEF7F2F90D9004F12400FEF71D
S31510011A10F7F9834604F12700FEF7E8F9169004F169
S31510011A202A00FEF7E3F90E9004F12C00FEF7E8F90F
S31510011A30824604F12F00FEF7D9F9C0F3940504F19B
S31510011A403100FEF7DDF9C0F3D41904F13400FEF7C5
S31510011A50D7F9C0F3141704F13700FEF7C7F9C0F32D
S31510011A60540804F13900FEF7CBF9C0F3941604F1CA
S31510011A703C00FEF7C5F9CBF39412C308DDF818B094
S31510011A80DDF830E0049843EA417C0E9B0E92089AE9
S31510011A90CBF3941BCAF3541ACDF83CB0CDF864A01D
S31510011AA0DDF81CB0DDF800A0C2F314021092CEF3DB
S31510011AB0141E0D9ACDF830E0CBF3D40BDDF828E0E7
S31510011AC0CDF848B0CAF3140ADDF82CB0CDF888A0C9
S31510011AD0C2F35402DDF804A01592CEF3940E169AB1
S31510011AE0CDF844E0CBF3D41BDDF824E0CDF850B0AB
S31510011AF0CAF3541AC0F31410C2F3D40BCDF88CA048
S31510011B00039ADDF808A026900598CDF85CB0CEF3BF
S31510011B10541EDFF89CB3CDF84CE0C910CCF1000E81
S31510011B20CAF3940AC2F3D412C0F35400CDF890A0AC
S31510011B30259227900BFB01E0DFF878B3CDF800C0B2
S31510011B400BFB01EACDF808A0DFF86CA3DB4ADFF83E
S31510011B5070C30AFB01EBCDF804B0DFF868B30CFBD8
S31510011B6001EC02FB01E20BFB01EE0021CDF824E0B2
S31510011B702191DDF800E08B46D049C3F31403AEFB87
S31510011B80011E5B1842EB0E02590D41EAC22EC3F338
S31510011B901403CDF868E01E93DFF824E3009B0E9939
S31510011BA052151B92A3FB0E32CB184CEB0202DFF837
S31510011BB014C3A6FB0CC113EB0C03A1EB060141EBFD
S31510011BC00201BE4AA8FB022C9A18ACEB080C4CEB8E
S31510011BD001039C46530D43EACC231893C2F3140315
S31510011BE01D93009AB24B0C99CDF828C0A2FB032382
S31510011BF0DFF8C0C28A1840EB0303A6FB0C011218CA
S31510011C00A1EB060141EB0301DFF8B8C2A8FB0E30C8
S31510011C10D318A0EB080242EB0102A7FB0C011B181B
S31510011C20A1EB070141EB0201A44AA9FB02209A1874
S31510011C30A0EB090040EB0103510D41EAC32CCDF88D
S31510011C4058C00F990B93C2F3140CCDF870C0A5FBB5
S31510011C500A3CCB18ACEB050C1098954A4CF1000ECA
S31510011C604FEA535CC3F314032893A7FB0A31CDF84B
S31510011C7030E04CEACE2CC3189646A1EB0701A9FB1E
S31510011C80020241F100011B188A48A2EB090242EB3C
S31510011C900102A5FB00105B18A0EB050040EB020149
S31510011CA05A0D42EAC1200D91C3F3140311992A93D7
S31510011CB0A6FB0A2310908A187046A3EB0603A8FB0D
S31510011CC00E1E43F10003AEEB080E52184EEB030E37
S31510011CD0784BA7FB0331D318A1EB070141EB0E019A
S31510011CE0DFF8DCE1A9FB0EE213EB0E03DFF8D4E11A
S31510011CF0A2EB090242EB0102A5FB0EE113EB0E0367
S31510011D00A1EB050141EB0202590D0E9241EAC221E6
S31510011D10C3F3140E129ACDF8B8E0A9FB0AE312EB3D
S31510011D200E0EA3EB090343F100020F92A5FB00323D
S31510011D300F981EEB0303A2EB050242EB000213EB15
S31510011D400C03DDF830C0DDF84CE042EB6C52580D57
S31510011D50C3F3140CCDF8A4C040EAC22CCDF8ACC024
S31510011D605015A8FB0AC21EEB0C0CDFF844E12C90AF
S31510011D70A7FB0EE3A2EB080242F100021CEB0E0CCC
S31510011D80DFF830E11098A3EB070343EB0203A9FB3D
S31510011D900E2E1CEB020CAEEB090E4EEB030E484B4E
S31510011DA0A5FB03321CEB0303A2EB0502DDF834C0DD
S31510011DB042EB0E021B1842EB6C52C3F3140C5B0D73
S31510011DC043EAC220CDF8B4C0DDF800C02F905315F8
S31510011DD014983093ACFB0A32C318DFF8D4C00198BB
S31510011DE0DFF8D0E040EB0202A6FB0CC013EB0C03AC
S31510011DF0A0EB060040EB0200A8FB0E2CDFF8C0E0BA
S31510011E009A18ACEB080343EB0003A7FB0E0C121850
S31510011E10ACEB070C4CEB030C2A4BDDF838E0A9FBB5
S31510011E200330D318254AA0EB090040EB0C00A5FBA3
S31510011E3002C213EB0C03A2EB050545EB00055B187B
S31510011E40C3F3140945EB6E55CDF8C490DFF864E081
S31510011E50DDF800901599DFF86CC0A9FB0E2E580D10
S31510011E60029B8A1843EB0E0EA9FB0C3CDFF850902F
S31510011E70A6FB09195118A9EB060949EB0E09DFF85A
S31510011E8044E0A8FB0E2E8A180C49AEEB080E4EEB59
S31510011E900908A7FB01E112EB0E02A1EB070E169939
S31510011EA0DDF82C90054F4EEB080E521817990BE0E2
S31510011EB0192DE7FF68FBE9FF132CEAFF8490F5FF64
S31510011EC054C6F0FFD115E2FF4EEB695EA6FB0787FC
S31510011ED0DDF82490CB18A7EB0607189E49EB0C0CDE
S31510011EE013EB080347EB0C0C9B19DDE91967DDF8B9
S31510011EF02890DFF898834CEB695CF61900961B9FC6
S31510011F001C9E40EAC52047F10007510D30181D9E51
S31510011F1041EACE214FEA655545F100057118019147
S31510011F204FEA53561E9946EACC264FEA6E5E4EF19B
S31510011F30000E8E190296C0F100060AFB0569019979
S31510011F40CDF8249008FB0569CDF82890C1F1000958
S31510011F500AFB0E9108FB0E980B91CD49CDF83480F2
S31510011F60DFF8308301FB05610C91414608FB0568DA
S31510011F70CDF83880DDF808804FEA6C5C4CF1000C26
S31510011F80C8F100080AFB0C8ACDF83CA0DFF800A3C3
S31510011F900AFB0E9ACDF840A0DFF8FCA20AFB056AEF
S31510011FA0CDF844A0DFF8F4A20AFB0565009E15954D
S31510011FB0AAF5362A75426FF48E66B2440AFB0756A5
S31510011FC001FB0E9AA1F51921A1F63B11CDF850A0EE
S31510011FD001FB075ACDF858A0DFF8B4A21296514664
S31510011FE0AA4E0AFB0C8ACDF85CA0DFF8ACA206FB60
S31510011FF00C8613960AFB0E961896A84E06FB0E9E95
S31510012000DFF89092CDF86CE001FB075ECDF864E045
S3151001201009FB0C8ECDF868E009FB075E0AFB0C89FB
S3151001202006FB0C8CCDF87CC00AFB075C0AF5012A6D
S315100120300AF2426A2299CDF878C006FB0757A0FB2F
S315100120400A5C4D19CDF870E0DDF824E0239920974C
S31510012050C2F31402C5F31407DFF830820A9E0997FA
S315100120604EEB0C0C4FEA555EA2FB0A57CDF8749055
S315100120704D19A0FB0889A7EB02074EEACC2E47F1B2
S3151001208000074E4415EB080546EB070615EB0E0542
S3151001209046EB6C564FEA555CC5F31405229501992A
S315100120A0DFF8E881A1FB0A752499CF190B99C1466E
S315100120B0A2FB088E41EB050517EB0807DFF8D08167
S315100120C02599AEEB020E4EEB050EA0FB08587D19B5
S315100120D00C9F4CEAC62C474447EB0E0715EB0C0533
S315100120E0C3F314034FEA555EC5F314050B95A3FB11
S315100120F00A5C47EB66574D190199ACEB030CA1FB32
S3151001210009864CF1000C15EB0805DDF83480DFF873
S3151001211084912699464446EB0C06DFF874C1A2FB5E
S315100121200CC815EB0C05A8EB020848EB0608A0FB3A
S31510012130096CAE190E9D4EEAC72EAC444CEB080C39
S3151001214016EB0E06C6F314050C95029DDFF83C81BD
S315100121504FEA565EA5FB0A564CEB675C4D190F9973
S31510012160DFF82CA141EB0606A3FB0887019915EBB5
S315100121700805A7EB030747EB0607A1FB0A8615EB34
S315100121800805DDF840802799DDF808A0464446EB9E
S315100121900706A2FB0978ED19A8EB020848EB060819
S315100121A03D4EA0FB0667AD19119E37443B4E4EEAD4
S315100121B0CC2E47EB0807DDF8548015EB0E05A0FB76
S315100121C006E047EB6C57009E40444FEA555CC5F359
S315100121D01408334DCDF83480A6FB05564D19DFF89A
S315100121E0AC80129941EB06064146AAFB0898DDF828
S315100121F04CA0D044DFF898A015EB090548EB06086A
S31510012200A3FB0A9615EB0905A6EB030646EB080692
S31510012210DFF88090DDF80480A8FB098915EB080525
S31510012220DDF85080C144DFF8708049EB0609A2FB46
S315100122300868AE19A8EB020848EB09084CEAC72C46
S3151001224016EB0E0640EB080016EB0C06C6F3140847
S315100122504FEA565C009ECDF83880A6FB0156DDF894
S3151001226008802899DFF82C9040EB6750A8FB0AE705
S315100122704D19DDF85CA01699DFF81C8041EB0606B6
S31510012280574415EB0E0501990CE000BF192DE7FF18
S3151001229068FBE9FF54C6F0FFD115E2FF8490F5FF04
S315100122A0132CEAFFDFF8A0A347EB0607A3FB09E609
S315100122B015EB0E05DDF86090A6EB030646EB070657
S315100122C0A1FB08E715EB0E054F4447EB0607DF4E5A
S315100122D0DDF86C90A1FB06E1A2FB06864CEAC02C48
S315100122E015EB0805A6EB020646EB070615EB0C05E2
S315100122F0DDF800C0DDF8688046EB60562998494440
S315100123006F0DC5F31409ACFB0A258218DDF808A078
S315100123101998DFF83CC340EB0505AAFB0C0CC44425
S31510012320DFF8308310184CEB050CA3FB0825821837
S31510012330A5EB030545EB0C0547EAC62712EB0E0282
S3151001234041EB0501D219DDE92A57C24641EB665127
S31510012350DDF8B080009EDFF8F8C2DFF8F0E2E81988
S3151001236048F10005570DC2F31408A6FB0C6280193B
S315100123701C9EDDF808C0324442EB0502ACFB0A563E
S3151001238040191D9D2E441F9D46EB0206ACFB0EC245
S315100123902A44A3FB0EE547EAC12710EB0E00A5EB75
S315100123A0030545EB0605C019C0F314060F96009EEA
S315100123B02D9FDFF898E245EB6155410DA6FB0A30DA
S315100123C0FB181E9F41EAC52147EB000013EB0C03D6
S315100123D042EB00025B18DDE92E10DDF8C0C0099F43
S315100123E042EB65520818A6FB0E164CF10005411872
S315100123F02098304440EB05005D0D45EAC2254D1984
S3151001240040EB6250C3F3140C319ACDF840C06B0DFA
S3151001241043EAC023D3184FEA605040F10000C5F3D8
S3151001242014065D0D45EAC0258B4A119640156E427C
S31510012430C3F31403129302FB0063A5FB021279186E
S31510012440AEF5662EC1F31407AEF26B3E0A9767F32B
S31510012450070B0EFB00670097229F43EB02034A0D01
S31510012460A5FB0E1C7918009FDFF8DCE142EAC322B6
S3151001247047EB0C0789184FEA515CC1F3140101911E
S315100124800B9947EB63570EFB0062A5FB0E3E4CEA18
S31510012490C72CCB1842EB0E0213EB0C0342EB67521F
S315100124A0C3F3140E5F0D6A4B0C99CDF808E003FBCC
S315100124B0006CA5FB033E47EAC227CB184CEB0E0E68
S315100124C0DB194EEB625E614A0D995F0DC3F314037E
S315100124D000930AFB006C134602FB0066A5FB0A205B
S315100124E047EACE278A180E99DDF848A04CEB000C66
S315100124F0D219A5FB03504CEB6E5C4D1946EB00004F
S31510012500560D46EACC26AD1940EB6C506F0D47EAD5
S31510012510C02719EB07074FEA605040F100004FEA58
S31510012520575949EAC02918EB0909C2F314064FEAAB
S315100125306050334640F100000F9E1099DDF844C0FB
S31510012540019A0B934FEA595848EAC02816EB080826
S315100125504FEA605040F100004FEA585646EAC0264D
S315100125608E194FEA605040F100004FEA565E4EEA6E
S31510012570C02E1CEB0E0E4FEA605040F100004FEAE0
S315100125805E5C4CEAC02C1AEB0C0CCEF3140E4FEA1F
S31510012590CC1A4FEA605040F100004AEA9E3A0021F7
S315100125A009906AF3070100204FEAD22A6AF307005D
S315100125B0DDF808A04FEA8A0A4AEAD24A009A6AF373
S315100125C00F2003904FEA520A0020C5F314056AF34F
S315100125D0070000224FEA133A6AF307024FEA450A47
S315100125E04AEA135AC7F314076AF30F2204924FEA01
S315100125F0970A0022C9F314096AF3070205924FEAF2
S31510012600593A00226AF30702C8F314089246C6F330
S31510012610140668F30F2A099BCDF818A000224FEA79
S31510012620D60A6AF307024FEA5C0A4AEAC37A6AF3E0
S315100126300F2108910A990792019A009B4FEA112AD4
S315100126406AF30F2B0AE000BF68FBE9FF8490F5FFE0
S3151001265054C6F0FFD115E2FF132CEAFF4FEA421AD6
S315100126604AEA114A6AF3174BD1080B9A61F31F6BA9
S315100126708246590AC4F800B061F30F2ADDF808B092
S315100126800398110141EA534161F3174A59468909E1
S31510012690DB0143EA9B3361F31740120963F31F60B1
S315100126A062F31F6A606053460598A360BB0A63F321
S315100126B00F204FEAC90343EA974363F317404FEAE2
S315100126C0591969F31F60049A20610798DDF818A05B
S315100126D00899F30A63F30F204FEA8E0343EAD643B0
S315100126E0BF01760147EAD53746EA1846ED094FEAA2
S315100126F0182865F3174268F3174A67F31F6266F3E2
S315100127001F6AE26063F31740099A534663614FEA01
S315100127105C2343EAC2534FEA5C4C4FEA9E1E63F3B5
S3151001272017414CEAC23C6EF31F606CF31F61A06146
S31510012730E16133B0BDE8F08F2DE9F04FADF5017DC4
S315100127400CAE044601391CAD334611F8012F023384
S3151001275002F00F009D424FEA121203F8020C03F821
S31510012760012CF2D10DF12F0206F13E07002112F8CC
S31510012770013F0B44DBB203F1080141F30311C8B267
S31510012780A3EB0013BA421370F1D196F83F3096F9C4
S315100127900120184486F83F0000212846FEF7EAFF7B
S315100127A004F1280826AA29462046FDF78BFE04F1D6
S315100127B0500926AA29464046FDF754FD4846FDF71D
S315100127C031FB04F1780A042323654246214650461B
S315100127D0FDF7CCFF224621462046FDF743FD424632
S315100127E041464046FDF73EFDC6F10303B34601934C
S315100127F0019B9BF9032003EB0B0149102846FEF7B9
S31510012800B9FF2246414658A8FDF72CFD22464146FE
S3151001281062A8FDF757FE2A4658A96CA8FDF7A6FF30
S3151001282062A9084626AAFDF7A1FF524630A976A845
S31510012830FDF79CFF4A4649463AA8FDF713FD62AAE1
S315100128406CA958A8FDF73EFE62AA10466CA9FDF7C1
S3151001285009FD76AA3AA96CA8FDF704FD76AA1046D9
S315100128603AA9FDF72FFE76AA58A92046FDF77EFF55
S315100128706CAA62A94046FDF779FF76AA6CA948466B
S31510012880FDF774FF0BF1020B62AA58A95046FDF72A
S315100128906DFFBB45ACD121463AA8FDF74FFF414626
S315100128A044A8FDF74BFF49464EA8FDF747FF3AA945
S315100128B058A8FDF7C5FA44A96CA8FDF7C1FA4EA9A7
S315100128C076A8FEF79BFB44AA3AA962A8FDF7CAFCB3
S315100128D062A902A8FDF7B4FA58AA6CA962A8FDF775
S315100128E0C1FC6CA9084658AAFDF7ECFD62AA02A91B
S315100128F058A8FDF7E7FD76A908466CAAFDF7E2FD93
S3151001290076AA58A93AA8FDF731FF6CAA62A944A87C
S31510012910FDF72CFF76AA6CA94EA8FDF727FF3AA959
S3151001292058A8FDF78DFA44A96CA8FDF789FA4EA9A6
S3151001293076A8FEF763FB44AA3AA962A8FDF792FCB2
S3151001294062A902A8FDF77CFA58AA6CA962A8FDF73C
S3151001295089FC6CA9084658AAFDF7B4FD62AA02A91A
S3151001296058A8FDF7AFFD76A908466CAAFDF7AAFD92
S3151001297076AA58A93AA8FDF7F9FE6CAA62A944A845
S31510012980FDF7F4FE76AA6CA94EA8FDF7EFFE3AA95B
S3151001299058A8FDF755FA44A96CA8FDF751FA4EA9A6
S315100129A076A8FEF72BFB44AA3AA962A8FDF75AFCB2
S315100129B062A902A8FDF744FA58AA6CA962A8FDF704
S315100129C051FC6CA9084658AAFDF77CFD62AA02A91A
S315100129D058A8FDF777FD76A908466CAAFDF772FD92
S315100129E076AA58A93AA8FDF7C1FE6CAA62A944A80D
S315100129F0FDF7BCFE76AA6CA94EA8FDF7B7FE3AA95B
S31510012A0058A8FDF71DFA44A96CA8FDF719FA4EA9A5
S31510012A1076A8FEF7F3FA44AA3AA962A8FDF722FCB2
S31510012A2062A902A8FDF70CFA58AA6CA962A8FDF7CB
S31510012A3019FC6CA9084658AAFDF744FD62AA02A919
S31510012A4058A8FDF73FFD76A908466CAAFDF73AFD91
S31510012A5076AA58A92046FDF789FE6CAA62A94046B6
S31510012A60FDF784FE76AA6CA94846FDF77FFE62AA99
S31510012A7058A95046FDF77AFE0027F25779102846D5
S31510012A80FEF778FE2246414658A8FDF7EBFB224693
S31510012A90414662A8FDF716FD2A4658A96CA8FDF70E
S31510012AA065FE62A9084626AAFDF760FE524630A9C0
S31510012AB076A8FDF75BFE4A46494602A8FDF7D2FB0A
S31510012AC062AA6CA958A8FDF7FDFC62AA10466CA96A
S31510012AD0FDF7C8FB76AA02A96CA8FDF7C3FB76AA77
S31510012AE0104602A9FDF7EEFC76AA58A92046FDF775
S31510012AF03DFE6CAA62A94046FDF738FE76AA6CA97E
S31510012B004846FDF733FE023762AA58A95046FDF72B
S31510012B102DFE402FB1D10DF5017DBDE8F08F00BF1F
S31510012B202DE9F04FADF60C1D0DF5027B1D46144631
S31510012B300746C2AE5846FEF7C7FD2946304604F190
S31510012B402805FEF7C1FD294622460DF58160FDF7E0
S31510012B5089FB04F15008224629460DF58660FDF7DA
S31510012B60B1FC41460DF58B60FDF7E8FDB14A04F164
S31510012B7078010DF59060FDF7F9FD21465AA8FDF78C
S31510012B80DDFD294664A8FDF7D9FD41466EA8FDF77E
S31510012B90D5FD5AA90AA8FDF753F964A91EA8FDF790
S31510012BA04FF96EA928A8FEF729FA64AA5AA914A8FA
S31510012BB0FDF758FB14A932A8FDF742F90AAA1EA976
S31510012BC014A8FDF74FFB1EA908460AAAFDF77AFCC1
S31510012BD014AA32A90AA8FDF775FC28A908461EAA47
S31510012BE0FDF770FC28AA0AA95AA8FDF7BFFD1EAA6F
S31510012BF014A964A8FDF7BAFD28AA1EA96EA8FDF7A7
S31510012C00B5FD14AA0AA978A8FDF7B0FD5AAA64A9B8
S31510012C100AA8FDF727FB5AAA64A914A8FDF752FCC6
S31510012C200DF581620AA91EA8FDF7A0FD14A9084693
S31510012C300DF58662FDF79AFD78AA0DF5906128A823
S31510012C40FDF794FD0DF58B626EA90AA8FDF78EFDB1
S31510012C500AAA114632A8FDF705FB14AA1EA90AA84D
S31510012C60FDF730FC14AA10461EA9FDF7FBFA28AA97
S31510012C7032A91EA8FDF7F6FA28AA104632A9FDF7C1
S31510012C8021FC28AA0AA932A8FDF770FD1EAA14A9CB
S31510012C903CA8FDF76BFD28AA1EA946A8FDF766FDFF
S31510012CA014AA0AA950A8FDF761FD32AA3CA90DF58F
S31510012CB09560FDF7D7FA32AA3CA90DF59A60FDF792
S31510012CC001FC46A90DF59F60FDF738FD594A50A93B
S31510012CD00DF5A460FDF74AFD5AAA64A90AA8FDF7E5
S31510012CE0C1FA5AAA64A914A8FDF7ECFB0DF5956271
S31510012CF00AA91EA8FDF73AFD14A908460DF59A6210
S31510012D00FDF734FD78AA0DF5A46128A8FDF72EFD6F
S31510012D100DF59F626EA90AA8FDF728FD0AAA1146AC
S31510012D206846FDF79FFA14AA1EA90AA8FDF7CAFB61
S31510012D3014AA10461EA9FDF795FA28AA69461EA8D7
S31510012D40FDF790FA28AA10466946FDF7BBFB28AA9B
S31510012D500AA932A8FDF70AFD1EAA14A93CA8FDF777
S31510012D6005FD28AA1EA946A8FDF700FD14AA0AA961
S31510012D7050A8FDF7FBFC32AA3CA90DF5A960FDF799
S31510012D8071FA32AA3CA90DF5AE60FDF79BFB46A977
S31510012D900DF5B360FDF7D2FC264A50A90DF5B860C2
S31510012DA0FDF7E4FC5AAA64A90AA8FDF75BFA5AAA28
S31510012DB064A914A8FDF786FB0DF5A9620AA91EA838
S31510012DC0FDF7D4FC14A908460DF5AE62FDF7CEFC4D
S31510012DD078AA0DF5B86128A8FDF7C8FC0DF5B36200
S31510012DE06EA90AA8FDF7C2FC0AAA11466846FDF7A4
S31510012DF039FA14AA1EA90AA8FDF764FB14AA1046EB
S31510012E001EA9FDF72FFA28AA69461EA8FDF72AFA68
S31510012E1028AA10466946FDF755FB28AA0AA932A821
S31510012E20FDF7A4FC1EAA14A93CA8FDF79FFC28AA2D
S31510012E301EA901E00C1B021046A8FDF797FC14AA67
S31510012E400AA950A8FDF792FC32AA3CA90DF5BD605E
S31510012E50FDF708FA32AA3CA90DF5C260FDF732FB5F
S31510012E6046A90DF5C760FDF769FCB64A50A90DF5DF
S31510012E70CC60FDF77BFC5AAA64A90AA8FDF7F2F902
S31510012E805AAA64A914A8FDF71DFB0DF5BD620AA97E
S31510012E901EA8FDF76BFC14A908460DF5C262FDF7D5
S31510012EA065FC78AA0DF5CC6128A8FDF75FFC0DF538
S31510012EB0C7626EA90AA8FDF759FC0AAA1146684607
S31510012EC0FDF7D0F914AA1EA90AA8FDF7FBFA14AA50
S31510012ED010461EA9FDF7C6F928AA69461EA8FDF7D0
S31510012EE0C1F928AA10466946FDF7ECFA28AA0AA9DB
S31510012EF032A8FDF73BFC1EAA14A93CA8FDF736FC27
S31510012F0028AA1EA946A8FDF731FC14AA0AA950A899
S31510012F10FDF72CFC32AA3CA90DF5D160FDF7A2F9FB
S31510012F2032AA3CA90DF5D660FDF7CCFA46A90DF5E6
S31510012F30DB60FDF703FC834A50A90DF5E060FDF750
S31510012F4015FC5AAA64A90AA8FDF78CF95AAA64A90C
S31510012F5014A8FDF7B7FA0DF5D1620AA91EA8FDF757
S31510012F6005FC14A908460DF5D662FDF7FFFB78AAF4
S31510012F700DF5E06128A8FDF7F9FB0DF5DB626EA9E9
S31510012F800AA8FDF7F3FB0AAA11466846FDF76AF986
S31510012F9014AA1EA90AA8FDF795FA14AA10461EA985
S31510012FA0FDF760F928AA69461EA8FDF75BF928AA5C
S31510012FB010466946FDF786FA28AA0AA932A8FDF72E
S31510012FC0D5FB1EAA14A93CA8FDF7D0FB28AA1EA959
S31510012FD046A8FDF7CBFB14AA0AA950A8FDF7C6FB14
S31510012FE032AA3CA90DF5E560FDF73CF932AA3CA9D8
S31510012FF00DF5EA60FDF766FA46A90DF5EF60FDF7E6
S315100130009DFB504A50A90DF5F460FDF7AFFB5AAA86
S3151001301064A90AA8FDF726F95AAA64A914A8FDF706
S3151001302051FA0DF5E5620AA91EA8FDF79FFB14A931
S3151001303008460DF5EA62FDF799FB78AA0DF5F461DC
S3151001304028A8FDF793FB0DF5EF626EA90AA8FDF707
S315100130508DFB0AAA11466846FDF704F914AA1EA9A2
S315100130600AA8FDF72FFA14AA10461EA9FDF7FAF8B9
S3151001307028AA69461EA8FDF7F5F828AA104669463A
S31510013080FDF720FA28AA0AA932A8FDF76FFB1EAA96
S3151001309014A93CA8FDF76AFB28AA1EA946A8FDF7A4
S315100130A065FB14AA0AA950A8FDF760FB32AA3CA930
S315100130B00DF5F960FDF7D6F832AA3CA90DF5FE60BB
S315100130C0FDF700FA46A90DF61800FDF737FB1D4A64
S315100130D050A90DF50460FDF749FB5AAA64A90AA87F
S315100130E0FDF7C0F85AAA64A914A8FDF7EBF90DF576
S315100130F0F9620AA91EA8FDF739FB14A908460DF5B0
S31510013100FE62FDF733FB78AA0DF5046128A8FDF7D9
S315100131102DFB0DF618026EA90AA8FDF727FB0AAAC0
S3151001312011466846FDF79EF814AA1EA90AA8FDF7CE
S31510013130C9F914AA10461EA9FDF794F828AA6946DA
S3151001314002E000BF0C1B02101EA8FDF78BF828AA7F
S3151001315010466946FDF7B6F928AA0AA932A8FDF75D
S3151001316005FB1EAA14A93CA8FDF700FB28AA1EA957
S3151001317046A8FDF7FBFA14AA0AA950A8FDF7F6FA14
S3151001318032AA3CA90DF66800FDF76CF832AA3CA9E3
S315100131900DF50960FDF796F946A90DF6B800FDF78C
S315100131A0CDFA924A50A90DF50E60FDF7DFFA07F137
S315100131B028083846FCF736FE07F150094046FCF759
S315100131C023FE4846FCF720FE0DF58165324606E0E2
S315100131D015F9011C41B99E4200F0BF811D4612F935
S315100131E0011D6B1E0029F3D0AD1B2E44DFF800A282
S315100131F05D441AE040F0FE8016F9014D002C00F3F3
S31510013200A48040F0588128AA0AA93846FDF7AEFADB
S315100132101EAA14A94046FDF7A9FA28AA1EA94846CE
S31510013220FDF7A4FA5D4500F0988139460AA8FCF726
S3151001323007FE41461EA8FCF703FE494628A8FDF7DE
S31510013240DDFE4246394614A8FDF70CF814A9684666
S31510013250FCF7F6FD0AAA1EA914A8FDF703F81EA984
S3151001326008460AAAFDF72EF914AA69460AA8FDF717
S3151001327029F928A91EAA0846FDF724F915F9014DC1
S31510013280002CB7DD28AA0AA932A8FDF76FFA1EAAE3
S3151001329014A93CA8FDF76AFA28AA1EA946A8FDF7A3
S315100132A065FA14AA0AA950A8FDF760FA32AA3CA930
S315100132B00AA8FCF7D7FF641032AA3CA914A8FDF797
S315100132C001F904EB84040DF5816303EB44120AA999
S315100132D064011EA8FDF74AFA0DF5816314A904F1DC
S315100132E028021A440846FDF741FA0DF5816304F1E7
S315100132F07801194450AA28A8FDF738FA0DF581630B
S3151001330004F150021A4446A90AA8FDF72FFA0AAA8F
S3151001331011466846FCF7A6FF14AA1EA90AA8FDF7CE
S31510013320D1F814AA10461EA9FCF79CFF28AA6946D3
S315100133301EA8FCF797FF28AA69461046FDF7C2F8A2
S3151001334016F9014D002C7FF75CAF28AA0AA932A8FD
S31510013350FDF70CFA1EAA14A93CA8FDF707FA28AA2C
S315100133601EA946A8FDF702FA14AA0AA950A8FDF744
S31510013370FDF9641032AA3CA90AA8FCF773FFC4EB45
S31510013380041432AA3CA914A8FDF79CF80AEBC4024E
S315100133900AA9E4001EA8FDF7E9F914A904F1280207
S315100133A052440846FDF7E2F904F15001514450AA7E
S315100133B028A8FDF7DBF946AA11466846FCF752FF25
S315100133C014AA1EA90AA8FDF77DF814AA1EA910466B
S315100133D0FCF748FF28AA69461EA8FCF743FF28AA4E
S315100133E069461046FDF76EF80DE700BF0C1B02107B
S315100133F0841B021028AA0AA932A8FDF7B7F904EB13
S31510013400D4741EAA14A93CA8FDF7B0F9641028AA11
S315100134101EA946A8FDF7AAF9644214AA0AA950A83A
S31510013420FDF7A4F904EB840432AA3CA90AA8FCF717
S3151001343019FF640132AA3CA914A8FDF743F80DF54A
S31510013440816304F128021A440AA91EA8FDF78EF910
S315100134500DF5816314A91A190846FDF787F90DF5BB
S31510013460816304F17801194450AA28A8FDF77EF961
S315100134700DF5816304F150021A4446A90AA8FDF715
S3151001348075F90AAA11466846FCF7ECFE14AA1EA99C
S315100134900AA8FDF717F814AA1EA91046FCF7E2FEB2
S315100134A028AA69461EA8FDF70DF828AA69461046EE
S315100134B0FCF7D8FEA0E628AA0AA932A8FDF756F904
S315100134C01EAA14A93CA8FDF751F904EBD47428AA35
S315100134D01EA946A8FDF74AF9641014AA0AA950A80C
S315100134E0FDF744F9A4EB041432AA3CA90AA8FCF787
S315100134F0B9FEE40032AA3CA914A8FCF7E3FF04F1D3
